{
  "contracts/VisibilityExample2.sol": {
    "VisibilityExample2": {
      "abi": [
        {
          "inputs": [],
          "name": "externalFunction",
          "outputs": [
            {
              "internalType": "string",
              "name": "",
              "type": "string"
            }
          ],
          "stateMutability": "pure",
          "type": "function"
        },
        {
          "inputs": [],
          "name": "publicFunction",
          "outputs": [
            {
              "internalType": "string",
              "name": "",
              "type": "string"
            }
          ],
          "stateMutability": "pure",
          "type": "function"
        }
      ],
      "evm": {
        "bytecode": {
          "linkReferences": {},
          "object": "6080604052348015600f57600080fd5b5061010e8061001f6000396000f3fe6080604052348015600f57600080fd5b506004361060325760003560e01c80633a32b5491460375780637b5d520b14606b575b600080fd5b604080518082019091526008815267115e1d195c9b985b60c21b60208201525b60405160629190608c565b60405180910390f35b6040805180820190915260068152655075626c696360d01b60208201526057565b602081526000825180602084015260005b8181101560b85760208186018101516040868401015201609d565b506000604082850101526040601f19601f8301168401019150509291505056fea2646970667358221220d4d64fda4882c7c4bb9b1df42942af97c087f22173f1f7dc8b5aff830476c9eb64736f6c634300081c0033",
          "opcodes": "PUSH1 0x80 PUSH1 0x40 MSTORE CALLVALUE DUP1 ISZERO PUSH1 0xF JUMPI PUSH1 0x0 DUP1 REVERT JUMPDEST POP PUSH2 0x10E DUP1 PUSH2 0x1F PUSH1 0x0 CODECOPY PUSH1 0x0 RETURN INVALID PUSH1 0x80 PUSH1 0x40 MSTORE CALLVALUE DUP1 ISZERO PUSH1 0xF JUMPI PUSH1 0x0 DUP1 REVERT JUMPDEST POP PUSH1 0x4 CALLDATASIZE LT PUSH1 0x32 JUMPI PUSH1 0x0 CALLDATALOAD PUSH1 0xE0 SHR DUP1 PUSH4 0x3A32B549 EQ PUSH1 0x37 JUMPI DUP1 PUSH4 0x7B5D520B EQ PUSH1 0x6B JUMPI JUMPDEST PUSH1 0x0 DUP1 REVERT JUMPDEST PUSH1 0x40 DUP1 MLOAD DUP1 DUP3 ADD SWAP1 SWAP2 MSTORE PUSH1 0x8 DUP2 MSTORE PUSH8 0x115E1D195C9B985B PUSH1 0xC2 SHL PUSH1 0x20 DUP3 ADD MSTORE JUMPDEST PUSH1 0x40 MLOAD PUSH1 0x62 SWAP2 SWAP1 PUSH1 0x8C JUMP JUMPDEST PUSH1 0x40 MLOAD DUP1 SWAP2 SUB SWAP1 RETURN JUMPDEST PUSH1 0x40 DUP1 MLOAD DUP1 DUP3 ADD SWAP1 SWAP2 MSTORE PUSH1 0x6 DUP2 MSTORE PUSH6 0x5075626C6963 PUSH1 0xD0 SHL PUSH1 0x20 DUP3 ADD MSTORE PUSH1 0x57 JUMP JUMPDEST PUSH1 0x20 DUP2 MSTORE PUSH1 0x0 DUP3 MLOAD DUP1 PUSH1 0x20 DUP5 ADD MSTORE PUSH1 0x0 JUMPDEST DUP2 DUP2 LT ISZERO PUSH1 0xB8 JUMPI PUSH1 0x20 DUP2 DUP7 ADD DUP2 ADD MLOAD PUSH1 0x40 DUP7 DUP5 ADD ADD MSTORE ADD PUSH1 0x9D JUMP JUMPDEST POP PUSH1 0x0 PUSH1 0x40 DUP3 DUP6 ADD ADD MSTORE PUSH1 0x40 PUSH1 0x1F NOT PUSH1 0x1F DUP4 ADD AND DUP5 ADD ADD SWAP2 POP POP SWAP3 SWAP2 POP POP JUMP INVALID LOG2 PUSH5 0x6970667358 0x22 SLT KECCAK256 0xD4 0xD6 0x4F 0xDA BASEFEE DUP3 0xC7 0xC4 0xBB SWAP12 SAR DELEGATECALL 0x29 TIMESTAMP 0xAF SWAP8 0xC0 DUP8 CALLCODE 0x21 PUSH20 0xF1F7DC8B5AFF830476C9EB64736F6C634300081C STOP CALLER "
        },
        "methodIdentifiers": {
          "externalFunction()": "3a32b549",
          "publicFunction()": "7b5d520b"
        }
      }
    }
  }
}