{
  "contracts/StorageExample.sol": {
    "StorageExample": {
      "abi": [
        {
          "inputs": [
            {
              "internalType": "string",
              "name": "_name",
              "type": "string"
            },
            {
              "internalType": "uint256",
              "name": "_age",
              "type": "uint256"
            }
          ],
          "name": "setUser",
          "outputs": [],
          "stateMutability": "nonpayable",
          "type": "function"
        },
        {
          "inputs": [
            {
              "internalType": "uint256",
              "name": "_newAge",
              "type": "uint256"
            }
          ],
          "name": "updateAge",
          "outputs": [],
          "stateMutability": "nonpayable",
          "type": "function"
        },
        {
          "inputs": [],
          "name": "user",
          "outputs": [
            {
              "internalType": "string",
              "name": "name",
              "type": "string"
            },
            {
              "internalType": "uint256",
              "name": "age",
              "type": "uint256"
            }
          ],
          "stateMutability": "view",
          "type": "function"
        }
      ],
      "evm": {
        "bytecode": {
          "linkReferences": {},
          "object": "6080604052348015600f57600080fd5b506104158061001f6000396000f3fe608060405234801561001057600080fd5b50600436106100415760003560e01c80634f8632ba146100465780637d625c0714610065578063d3bddc2b1461007a575b600080fd5b61004e61008d565b60405161005c929190610158565b60405180910390f35b6100786100733660046101ad565b600155565b005b6100786100883660046101dc565b610125565b60008054819061009c90610297565b80601f01602080910402602001604051908101604052809291908181526020018280546100c890610297565b80156101155780601f106100ea57610100808354040283529160200191610115565b820191906000526020600020905b8154815290600101906020018083116100f857829003601f168201915b5050505050908060010154905082565b60408051808201909152828152602081018290526000806101468582610320565b50602082015181600101559050505050565b604081526000835180604084015260005b818110156101865760208187018101516060868401015201610169565b506000606082850101526060601f19601f8301168401019150508260208301529392505050565b6000602082840312156101bf57600080fd5b5035919050565b634e487b7160e01b600052604160045260246000fd5b600080604083850312156101ef57600080fd5b823567ffffffffffffffff81111561020657600080fd5b8301601f8101851361021757600080fd5b803567ffffffffffffffff811115610231576102316101c6565b604051601f8201601f19908116603f0116810167ffffffffffffffff81118282101715610260576102606101c6565b60405281815282820160200187101561027857600080fd5b8160208401602083013760006020928201830152969401359450505050565b600181811c908216806102ab57607f821691505b6020821081036102cb57634e487b7160e01b600052602260045260246000fd5b50919050565b601f82111561031b57806000526020600020601f840160051c810160208510156102f85750805b601f840160051c820191505b818110156103185760008155600101610304565b50505b505050565b815167ffffffffffffffff81111561033a5761033a6101c6565b61034e816103488454610297565b846102d1565b6020601f821160018114610382576000831561036a5750848201515b600019600385901b1c1916600184901b178455610318565b600084815260208120601f198516915b828110156103b25787850151825560209485019460019092019101610392565b50848210156103d05786840151600019600387901b60f8161c191681555b50505050600190811b0190555056fea2646970667358221220a2b4f811161b469b24e19c8d27255f9ce1d702132cbbed049823cf909870067564736f6c634300081c0033",
          "opcodes": "PUSH1 0x80 PUSH1 0x40 MSTORE CALLVALUE DUP1 ISZERO PUSH1 0xF JUMPI PUSH1 0x0 DUP1 REVERT JUMPDEST POP PUSH2 0x415 DUP1 PUSH2 0x1F PUSH1 0x0 CODECOPY PUSH1 0x0 RETURN INVALID PUSH1 0x80 PUSH1 0x40 MSTORE CALLVALUE DUP1 ISZERO PUSH2 0x10 JUMPI PUSH1 0x0 DUP1 REVERT JUMPDEST POP PUSH1 0x4 CALLDATASIZE LT PUSH2 0x41 JUMPI PUSH1 0x0 CALLDATALOAD PUSH1 0xE0 SHR DUP1 PUSH4 0x4F8632BA EQ PUSH2 0x46 JUMPI DUP1 PUSH4 0x7D625C07 EQ PUSH2 0x65 JUMPI DUP1 PUSH4 0xD3BDDC2B EQ PUSH2 0x7A JUMPI JUMPDEST PUSH1 0x0 DUP1 REVERT JUMPDEST PUSH2 0x4E PUSH2 0x8D JUMP JUMPDEST PUSH1 0x40 MLOAD PUSH2 0x5C SWAP3 SWAP2 SWAP1 PUSH2 0x158 JUMP JUMPDEST PUSH1 0x40 MLOAD DUP1 SWAP2 SUB SWAP1 RETURN JUMPDEST PUSH2 0x78 PUSH2 0x73 CALLDATASIZE PUSH1 0x4 PUSH2 0x1AD JUMP JUMPDEST PUSH1 0x1 SSTORE JUMP JUMPDEST STOP JUMPDEST PUSH2 0x78 PUSH2 0x88 CALLDATASIZE PUSH1 0x4 PUSH2 0x1DC JUMP JUMPDEST PUSH2 0x125 JUMP JUMPDEST PUSH1 0x0 DUP1 SLOAD DUP2 SWAP1 PUSH2 0x9C SWAP1 PUSH2 0x297 JUMP JUMPDEST DUP1 PUSH1 0x1F ADD PUSH1 0x20 DUP1 SWAP2 DIV MUL PUSH1 0x20 ADD PUSH1 0x40 MLOAD SWAP1 DUP2 ADD PUSH1 0x40 MSTORE DUP1 SWAP3 SWAP2 SWAP1 DUP2 DUP2 MSTORE PUSH1 0x20 ADD DUP3 DUP1 SLOAD PUSH2 0xC8 SWAP1 PUSH2 0x297 JUMP JUMPDEST DUP1 ISZERO PUSH2 0x115 JUMPI DUP1 PUSH1 0x1F LT PUSH2 0xEA JUMPI PUSH2 0x100 DUP1 DUP4 SLOAD DIV MUL DUP4 MSTORE SWAP2 PUSH1 0x20 ADD SWAP2 PUSH2 0x115 JUMP JUMPDEST DUP3 ADD SWAP2 SWAP1 PUSH1 0x0 MSTORE PUSH1 0x20 PUSH1 0x0 KECCAK256 SWAP1 JUMPDEST DUP2 SLOAD DUP2 MSTORE SWAP1 PUSH1 0x1 ADD SWAP1 PUSH1 0x20 ADD DUP1 DUP4 GT PUSH2 0xF8 JUMPI DUP3 SWAP1 SUB PUSH1 0x1F AND DUP3 ADD SWAP2 JUMPDEST POP POP POP POP POP SWAP1 DUP1 PUSH1 0x1 ADD SLOAD SWAP1 POP DUP3 JUMP JUMPDEST PUSH1 0x40 DUP1 MLOAD DUP1 DUP3 ADD SWAP1 SWAP2 MSTORE DUP3 DUP2 MSTORE PUSH1 0x20 DUP2 ADD DUP3 SWAP1 MSTORE PUSH1 0x0 DUP1 PUSH2 0x146 DUP6 DUP3 PUSH2 0x320 JUMP JUMPDEST POP PUSH1 0x20 DUP3 ADD MLOAD DUP2 PUSH1 0x1 ADD SSTORE SWAP1 POP POP POP POP JUMP JUMPDEST PUSH1 0x40 DUP2 MSTORE PUSH1 0x0 DUP4 MLOAD DUP1 PUSH1 0x40 DUP5 ADD MSTORE PUSH1 0x0 JUMPDEST DUP2 DUP2 LT ISZERO PUSH2 0x186 JUMPI PUSH1 0x20 DUP2 DUP8 ADD DUP2 ADD MLOAD PUSH1 0x60 DUP7 DUP5 ADD ADD MSTORE ADD PUSH2 0x169 JUMP JUMPDEST POP PUSH1 0x0 PUSH1 0x60 DUP3 DUP6 ADD ADD MSTORE PUSH1 0x60 PUSH1 0x1F NOT PUSH1 0x1F DUP4 ADD AND DUP5 ADD ADD SWAP2 POP POP DUP3 PUSH1 0x20 DUP4 ADD MSTORE SWAP4 SWAP3 POP POP POP JUMP JUMPDEST PUSH1 0x0 PUSH1 0x20 DUP3 DUP5 SUB SLT ISZERO PUSH2 0x1BF JUMPI PUSH1 0x0 DUP1 REVERT JUMPDEST POP CALLDATALOAD SWAP2 SWAP1 POP JUMP JUMPDEST PUSH4 0x4E487B71 PUSH1 0xE0 SHL PUSH1 0x0 MSTORE PUSH1 0x41 PUSH1 0x4 MSTORE PUSH1 0x24 PUSH1 0x0 REVERT JUMPDEST PUSH1 0x0 DUP1 PUSH1 0x40 DUP4 DUP6 SUB SLT ISZERO PUSH2 0x1EF JUMPI PUSH1 0x0 DUP1 REVERT JUMPDEST DUP3 CALLDATALOAD PUSH8 0xFFFFFFFFFFFFFFFF DUP2 GT ISZERO PUSH2 0x206 JUMPI PUSH1 0x0 DUP1 REVERT JUMPDEST DUP4 ADD PUSH1 0x1F DUP2 ADD DUP6 SGT PUSH2 0x217 JUMPI PUSH1 0x0 DUP1 REVERT JUMPDEST DUP1 CALLDATALOAD PUSH8 0xFFFFFFFFFFFFFFFF DUP2 GT ISZERO PUSH2 0x231 JUMPI PUSH2 0x231 PUSH2 0x1C6 JUMP JUMPDEST PUSH1 0x40 MLOAD PUSH1 0x1F DUP3 ADD PUSH1 0x1F NOT SWAP1 DUP2 AND PUSH1 0x3F ADD AND DUP2 ADD PUSH8 0xFFFFFFFFFFFFFFFF DUP2 GT DUP3 DUP3 LT OR ISZERO PUSH2 0x260 JUMPI PUSH2 0x260 PUSH2 0x1C6 JUMP JUMPDEST PUSH1 0x40 MSTORE DUP2 DUP2 MSTORE DUP3 DUP3 ADD PUSH1 0x20 ADD DUP8 LT ISZERO PUSH2 0x278 JUMPI PUSH1 0x0 DUP1 REVERT JUMPDEST DUP2 PUSH1 0x20 DUP5 ADD PUSH1 0x20 DUP4 ADD CALLDATACOPY PUSH1 0x0 PUSH1 0x20 SWAP3 DUP3 ADD DUP4 ADD MSTORE SWAP7 SWAP5 ADD CALLDATALOAD SWAP5 POP POP POP POP JUMP JUMPDEST PUSH1 0x1 DUP2 DUP2 SHR SWAP1 DUP3 AND DUP1 PUSH2 0x2AB JUMPI PUSH1 0x7F DUP3 AND SWAP2 POP JUMPDEST PUSH1 0x20 DUP3 LT DUP2 SUB PUSH2 0x2CB JUMPI PUSH4 0x4E487B71 PUSH1 0xE0 SHL PUSH1 0x0 MSTORE PUSH1 0x22 PUSH1 0x4 MSTORE PUSH1 0x24 PUSH1 0x0 REVERT JUMPDEST POP SWAP2 SWAP1 POP JUMP JUMPDEST PUSH1 0x1F DUP3 GT ISZERO PUSH2 0x31B JUMPI DUP1 PUSH1 0x0 MSTORE PUSH1 0x20 PUSH1 0x0 KECCAK256 PUSH1 0x1F DUP5 ADD PUSH1 0x5 SHR DUP2 ADD PUSH1 0x20 DUP6 LT ISZERO PUSH2 0x2F8 JUMPI POP DUP1 JUMPDEST PUSH1 0x1F DUP5 ADD PUSH1 0x5 SHR DUP3 ADD SWAP2 POP JUMPDEST DUP2 DUP2 LT ISZERO PUSH2 0x318 JUMPI PUSH1 0x0 DUP2 SSTORE PUSH1 0x1 ADD PUSH2 0x304 JUMP JUMPDEST POP POP JUMPDEST POP POP POP JUMP JUMPDEST DUP2 MLOAD PUSH8 0xFFFFFFFFFFFFFFFF DUP2 GT ISZERO PUSH2 0x33A JUMPI PUSH2 0x33A PUSH2 0x1C6 JUMP JUMPDEST PUSH2 0x34E DUP2 PUSH2 0x348 DUP5 SLOAD PUSH2 0x297 JUMP JUMPDEST DUP5 PUSH2 0x2D1 JUMP JUMPDEST PUSH1 0x20 PUSH1 0x1F DUP3 GT PUSH1 0x1 DUP2 EQ PUSH2 0x382 JUMPI PUSH1 0x0 DUP4 ISZERO PUSH2 0x36A JUMPI POP DUP5 DUP3 ADD MLOAD JUMPDEST PUSH1 0x0 NOT PUSH1 0x3 DUP6 SWAP1 SHL SHR NOT AND PUSH1 0x1 DUP5 SWAP1 SHL OR DUP5 SSTORE PUSH2 0x318 JUMP JUMPDEST PUSH1 0x0 DUP5 DUP2 MSTORE PUSH1 0x20 DUP2 KECCAK256 PUSH1 0x1F NOT DUP6 AND SWAP2 JUMPDEST DUP3 DUP2 LT ISZERO PUSH2 0x3B2 JUMPI DUP8 DUP6 ADD MLOAD DUP3 SSTORE PUSH1 0x20 SWAP5 DUP6 ADD SWAP5 PUSH1 0x1 SWAP1 SWAP3 ADD SWAP2 ADD PUSH2 0x392 JUMP JUMPDEST POP DUP5 DUP3 LT ISZERO PUSH2 0x3D0 JUMPI DUP7 DUP5 ADD MLOAD PUSH1 0x0 NOT PUSH1 0x3 DUP8 SWAP1 SHL PUSH1 0xF8 AND SHR NOT AND DUP2 SSTORE JUMPDEST POP POP POP POP PUSH1 0x1 SWAP1 DUP2 SHL ADD SWAP1 SSTORE POP JUMP INVALID LOG2 PUSH5 0x6970667358 0x22 SLT KECCAK256 LOG2 0xB4 0xF8 GT AND SHL CHAINID SWAP12 0x24 0xE1 SWAP13 DUP14 0x27 0x25 PUSH0 SWAP13 0xE1 0xD7 MUL SGT 0x2C 0xBB 0xED DIV SWAP9 0x23 0xCF SWAP1 SWAP9 PUSH17 0x67564736F6C634300081C003300000000 "
        },
        "methodIdentifiers": {
          "setUser(string,uint256)": "d3bddc2b",
          "updateAge(uint256)": "7d625c07",
          "user()": "4f8632ba"
        }
      }
    }
  }
}