{
  "contracts/VisibilityExample.sol": {
    "VisibilityExample": {
      "abi": [
        {
          "inputs": [],
          "name": "getAddress",
          "outputs": [
            {
              "internalType": "address",
              "name": "",
              "type": "address"
            }
          ],
          "stateMutability": "view",
          "type": "function"
        },
        {
          "inputs": [],
          "name": "isActive",
          "outputs": [
            {
              "internalType": "bool",
              "name": "",
              "type": "bool"
            }
          ],
          "stateMutability": "view",
          "type": "function"
        },
        {
          "inputs": [],
          "name": "reveal",
          "outputs": [
            {
              "internalType": "uint256",
              "name": "",
              "type": "uint256"
            }
          ],
          "stateMutability": "view",
          "type": "function"
        },
        {
          "inputs": [],
          "name": "value",
          "outputs": [
            {
              "internalType": "uint256",
              "name": "",
              "type": "uint256"
            }
          ],
          "stateMutability": "view",
          "type": "function"
        }
      ],
      "evm": {
        "bytecode": {
          "linkReferences": {},
          "object": "606460005560c06040526008608090815267536f6c696469747960c01b60a05260019061002c90826100f1565b506002805460ff60a01b1916600160a01b17905534801561004c57600080fd5b506101af565b634e487b7160e01b600052604160045260246000fd5b600181811c9082168061007c57607f821691505b60208210810361009c57634e487b7160e01b600052602260045260246000fd5b50919050565b601f8211156100ec57806000526020600020601f840160051c810160208510156100c95750805b601f840160051c820191505b818110156100e957600081556001016100d5565b50505b505050565b81516001600160401b0381111561010a5761010a610052565b61011e816101188454610068565b846100a2565b6020601f821160018114610152576000831561013a5750848201515b600019600385901b1c1916600184901b1784556100e9565b600084815260208120601f198516915b828110156101825787850151825560209485019460019092019101610162565b50848210156101a05786840151600019600387901b60f8161c191681555b50505050600190811b01905550565b60df806101bd6000396000f3fe6080604052348015600f57600080fd5b506004361060465760003560e01c806322f3e2d414604b57806338cc48311460735780633fa4f24514608d578063a475b5dd1460a2575b600080fd5b600254605e90600160a01b900460ff1681565b60405190151581526020015b60405180910390f35b6002546040516001600160a01b039091168152602001606a565b609560005481565b604051908152602001606a565b600054609556fea264697066735822122029867adb975f76a9d6e0e698cc08e29dc978b8c668dc31a6ec1fc5891841208264736f6c634300081c0033",
          "opcodes": "PUSH1 0x64 PUSH1 0x0 SSTORE PUSH1 0xC0 PUSH1 0x40 MSTORE PUSH1 0x8 PUSH1 0x80 SWAP1 DUP2 MSTORE PUSH8 0x536F6C6964697479 PUSH1 0xC0 SHL PUSH1 0xA0 MSTORE PUSH1 0x1 SWAP1 PUSH2 0x2C SWAP1 DUP3 PUSH2 0xF1 JUMP JUMPDEST POP PUSH1 0x2 DUP1 SLOAD PUSH1 0xFF PUSH1 0xA0 SHL NOT AND PUSH1 0x1 PUSH1 0xA0 SHL OR SWAP1 SSTORE CALLVALUE DUP1 ISZERO PUSH2 0x4C JUMPI PUSH1 0x0 DUP1 REVERT JUMPDEST POP PUSH2 0x1AF JUMP JUMPDEST PUSH4 0x4E487B71 PUSH1 0xE0 SHL PUSH1 0x0 MSTORE PUSH1 0x41 PUSH1 0x4 MSTORE PUSH1 0x24 PUSH1 0x0 REVERT JUMPDEST PUSH1 0x1 DUP2 DUP2 SHR SWAP1 DUP3 AND DUP1 PUSH2 0x7C JUMPI PUSH1 0x7F DUP3 AND SWAP2 POP JUMPDEST PUSH1 0x20 DUP3 LT DUP2 SUB PUSH2 0x9C JUMPI PUSH4 0x4E487B71 PUSH1 0xE0 SHL PUSH1 0x0 MSTORE PUSH1 0x22 PUSH1 0x4 MSTORE PUSH1 0x24 PUSH1 0x0 REVERT JUMPDEST POP SWAP2 SWAP1 POP JUMP JUMPDEST PUSH1 0x1F DUP3 GT ISZERO PUSH2 0xEC JUMPI DUP1 PUSH1 0x0 MSTORE PUSH1 0x20 PUSH1 0x0 KECCAK256 PUSH1 0x1F DUP5 ADD PUSH1 0x5 SHR DUP2 ADD PUSH1 0x20 DUP6 LT ISZERO PUSH2 0xC9 JUMPI POP DUP1 JUMPDEST PUSH1 0x1F DUP5 ADD PUSH1 0x5 SHR DUP3 ADD SWAP2 POP JUMPDEST DUP2 DUP2 LT ISZERO PUSH2 0xE9 JUMPI PUSH1 0x0 DUP2 SSTORE PUSH1 0x1 ADD PUSH2 0xD5 JUMP JUMPDEST POP POP JUMPDEST POP POP POP JUMP JUMPDEST DUP2 MLOAD PUSH1 0x1 PUSH1 0x1 PUSH1 0x40 SHL SUB DUP2 GT ISZERO PUSH2 0x10A JUMPI PUSH2 0x10A PUSH2 0x52 JUMP JUMPDEST PUSH2 0x11E DUP2 PUSH2 0x118 DUP5 SLOAD PUSH2 0x68 JUMP JUMPDEST DUP5 PUSH2 0xA2 JUMP JUMPDEST PUSH1 0x20 PUSH1 0x1F DUP3 GT PUSH1 0x1 DUP2 EQ PUSH2 0x152 JUMPI PUSH1 0x0 DUP4 ISZERO PUSH2 0x13A JUMPI POP DUP5 DUP3 ADD MLOAD JUMPDEST PUSH1 0x0 NOT PUSH1 0x3 DUP6 SWAP1 SHL SHR NOT AND PUSH1 0x1 DUP5 SWAP1 SHL OR DUP5 SSTORE PUSH2 0xE9 JUMP JUMPDEST PUSH1 0x0 DUP5 DUP2 MSTORE PUSH1 0x20 DUP2 KECCAK256 PUSH1 0x1F NOT DUP6 AND SWAP2 JUMPDEST DUP3 DUP2 LT ISZERO PUSH2 0x182 JUMPI DUP8 DUP6 ADD MLOAD DUP3 SSTORE PUSH1 0x20 SWAP5 DUP6 ADD SWAP5 PUSH1 0x1 SWAP1 SWAP3 ADD SWAP2 ADD PUSH2 0x162 JUMP JUMPDEST POP DUP5 DUP3 LT ISZERO PUSH2 0x1A0 JUMPI DUP7 DUP5 ADD MLOAD PUSH1 0x0 NOT PUSH1 0x3 DUP8 SWAP1 SHL PUSH1 0xF8 AND SHR NOT AND DUP2 SSTORE JUMPDEST POP POP POP POP PUSH1 0x1 SWAP1 DUP2 SHL ADD SWAP1 SSTORE POP JUMP JUMPDEST PUSH1 0xDF DUP1 PUSH2 0x1BD PUSH1 0x0 CODECOPY PUSH1 0x0 RETURN INVALID PUSH1 0x80 PUSH1 0x40 MSTORE CALLVALUE DUP1 ISZERO PUSH1 0xF JUMPI PUSH1 0x0 DUP1 REVERT JUMPDEST POP PUSH1 0x4 CALLDATASIZE LT PUSH1 0x46 JUMPI PUSH1 0x0 CALLDATALOAD PUSH1 0xE0 SHR DUP1 PUSH4 0x22F3E2D4 EQ PUSH1 0x4B JUMPI DUP1 PUSH4 0x38CC4831 EQ PUSH1 0x73 JUMPI DUP1 PUSH4 0x3FA4F245 EQ PUSH1 0x8D JUMPI DUP1 PUSH4 0xA475B5DD EQ PUSH1 0xA2 JUMPI JUMPDEST PUSH1 0x0 DUP1 REVERT JUMPDEST PUSH1 0x2 SLOAD PUSH1 0x5E SWAP1 PUSH1 0x1 PUSH1 0xA0 SHL SWAP1 DIV PUSH1 0xFF AND DUP2 JUMP JUMPDEST PUSH1 0x40 MLOAD SWAP1 ISZERO ISZERO DUP2 MSTORE PUSH1 0x20 ADD JUMPDEST PUSH1 0x40 MLOAD DUP1 SWAP2 SUB SWAP1 RETURN JUMPDEST PUSH1 0x2 SLOAD PUSH1 0x40 MLOAD PUSH1 0x1 PUSH1 0x1 PUSH1 0xA0 SHL SUB SWAP1 SWAP2 AND DUP2 MSTORE PUSH1 0x20 ADD PUSH1 0x6A JUMP JUMPDEST PUSH1 0x95 PUSH1 0x0 SLOAD DUP2 JUMP JUMPDEST PUSH1 0x40 MLOAD SWAP1 DUP2 MSTORE PUSH1 0x20 ADD PUSH1 0x6A JUMP JUMPDEST PUSH1 0x0 SLOAD PUSH1 0x95 JUMP INVALID LOG2 PUSH5 0x6970667358 0x22 SLT KECCAK256 0x29 DUP7 PUSH27 0xDB975F76A9D6E0E698CC08E29DC978B8C668DC31A6EC1FC5891841 KECCAK256 DUP3 PUSH5 0x736F6C6343 STOP ADDMOD SHR STOP CALLER "
        },
        "methodIdentifiers": {
          "getAddress()": "38cc4831",
          "isActive()": "22f3e2d4",
          "reveal()": "a475b5dd",
          "value()": "3fa4f245"
        }
      }
    }
  }
}