{
  "contracts/DataLocationExample.sol": {
    "DataLocationExample": {
      "abi": [
        {
          "inputs": [
            {
              "internalType": "uint256",
              "name": "_number",
              "type": "uint256"
            }
          ],
          "name": "addNumber",
          "outputs": [],
          "stateMutability": "nonpayable",
          "type": "function"
        },
        {
          "inputs": [],
          "name": "getFirstNumber",
          "outputs": [
            {
              "internalType": "uint256",
              "name": "",
              "type": "uint256"
            }
          ],
          "stateMutability": "view",
          "type": "function"
        },
        {
          "inputs": [
            {
              "internalType": "uint256[]",
              "name": "externalData",
              "type": "uint256[]"
            }
          ],
          "name": "logExternalData",
          "outputs": [
            {
              "internalType": "uint256",
              "name": "",
              "type": "uint256"
            }
          ],
          "stateMutability": "pure",
          "type": "function"
        },
        {
          "inputs": [
            {
              "internalType": "uint256",
              "name": "",
              "type": "uint256"
            }
          ],
          "name": "numbers",
          "outputs": [
            {
              "internalType": "uint256",
              "name": "",
              "type": "uint256"
            }
          ],
          "stateMutability": "view",
          "type": "function"
        },
        {
          "inputs": [
            {
              "internalType": "uint256",
              "name": "_newNumber",
              "type": "uint256"
            }
          ],
          "name": "updateFirstNumber",
          "outputs": [],
          "stateMutability": "nonpayable",
          "type": "function"
        }
      ],
      "evm": {
        "bytecode": {
          "linkReferences": {},
          "object": "6080604052348015600f57600080fd5b506102af8061001f6000396000f3fe608060405234801561001057600080fd5b50600436106100575760003560e01c806322ab91391461005c57806362f8e72a14610081578063d39fa23314610089578063dc17bc5c1461009c578063fce68023146100b1575b600080fd5b61006f61006a3660046101d3565b6100f1565b60405190815260200160405180910390f35b61006f610115565b61006f61009736600461024a565b61018c565b6100af6100aa36600461024a565b6101ad565b005b6100af6100bf36600461024a565b600080546001810182559080527f290decd9548b62a8d60345a988386fc84ba6bc95484008f6362f93160ef3e5630155565b60008282600081811061010657610106610263565b90506020020135905092915050565b600080600080548060200260200160405190810160405280929190818152602001828054801561016457602002820191906000526020600020905b815481526020019060010190808311610150575b505050505090508060008151811061017e5761017e610263565b602002602001015191505090565b6000818154811061019c57600080fd5b600091825260209091200154905081565b600081816000815481106101c3576101c3610263565b6000918252602090912001555050565b600080602083850312156101e657600080fd5b823567ffffffffffffffff8111156101fd57600080fd5b8301601f8101851361020e57600080fd5b803567ffffffffffffffff81111561022557600080fd5b8560208260051b840101111561023a57600080fd5b6020919091019590945092505050565b60006020828403121561025c57600080fd5b5035919050565b634e487b7160e01b600052603260045260246000fdfea264697066735822122026c09e76d00d7cf9460caadb547a76c8df234e8b1084a52da3de37fefa5970a364736f6c634300081c0033",
          "opcodes": "PUSH1 0x80 PUSH1 0x40 MSTORE CALLVALUE DUP1 ISZERO PUSH1 0xF JUMPI PUSH1 0x0 DUP1 REVERT JUMPDEST POP PUSH2 0x2AF DUP1 PUSH2 0x1F PUSH1 0x0 CODECOPY PUSH1 0x0 RETURN INVALID PUSH1 0x80 PUSH1 0x40 MSTORE CALLVALUE DUP1 ISZERO PUSH2 0x10 JUMPI PUSH1 0x0 DUP1 REVERT JUMPDEST POP PUSH1 0x4 CALLDATASIZE LT PUSH2 0x57 JUMPI PUSH1 0x0 CALLDATALOAD PUSH1 0xE0 SHR DUP1 PUSH4 0x22AB9139 EQ PUSH2 0x5C JUMPI DUP1 PUSH4 0x62F8E72A EQ PUSH2 0x81 JUMPI DUP1 PUSH4 0xD39FA233 EQ PUSH2 0x89 JUMPI DUP1 PUSH4 0xDC17BC5C EQ PUSH2 0x9C JUMPI DUP1 PUSH4 0xFCE68023 EQ PUSH2 0xB1 JUMPI JUMPDEST PUSH1 0x0 DUP1 REVERT JUMPDEST PUSH2 0x6F PUSH2 0x6A CALLDATASIZE PUSH1 0x4 PUSH2 0x1D3 JUMP JUMPDEST PUSH2 0xF1 JUMP JUMPDEST PUSH1 0x40 MLOAD SWAP1 DUP2 MSTORE PUSH1 0x20 ADD PUSH1 0x40 MLOAD DUP1 SWAP2 SUB SWAP1 RETURN JUMPDEST PUSH2 0x6F PUSH2 0x115 JUMP JUMPDEST PUSH2 0x6F PUSH2 0x97 CALLDATASIZE PUSH1 0x4 PUSH2 0x24A JUMP JUMPDEST PUSH2 0x18C JUMP JUMPDEST PUSH2 0xAF PUSH2 0xAA CALLDATASIZE PUSH1 0x4 PUSH2 0x24A JUMP JUMPDEST PUSH2 0x1AD JUMP JUMPDEST STOP JUMPDEST PUSH2 0xAF PUSH2 0xBF CALLDATASIZE PUSH1 0x4 PUSH2 0x24A JUMP JUMPDEST PUSH1 0x0 DUP1 SLOAD PUSH1 0x1 DUP2 ADD DUP3 SSTORE SWAP1 DUP1 MSTORE PUSH32 0x290DECD9548B62A8D60345A988386FC84BA6BC95484008F6362F93160EF3E563 ADD SSTORE JUMP JUMPDEST PUSH1 0x0 DUP3 DUP3 PUSH1 0x0 DUP2 DUP2 LT PUSH2 0x106 JUMPI PUSH2 0x106 PUSH2 0x263 JUMP JUMPDEST SWAP1 POP PUSH1 0x20 MUL ADD CALLDATALOAD SWAP1 POP SWAP3 SWAP2 POP POP JUMP JUMPDEST PUSH1 0x0 DUP1 PUSH1 0x0 DUP1 SLOAD DUP1 PUSH1 0x20 MUL PUSH1 0x20 ADD PUSH1 0x40 MLOAD SWAP1 DUP2 ADD PUSH1 0x40 MSTORE DUP1 SWAP3 SWAP2 SWAP1 DUP2 DUP2 MSTORE PUSH1 0x20 ADD DUP3 DUP1 SLOAD DUP1 ISZERO PUSH2 0x164 JUMPI PUSH1 0x20 MUL DUP3 ADD SWAP2 SWAP1 PUSH1 0x0 MSTORE PUSH1 0x20 PUSH1 0x0 KECCAK256 SWAP1 JUMPDEST DUP2 SLOAD DUP2 MSTORE PUSH1 0x20 ADD SWAP1 PUSH1 0x1 ADD SWAP1 DUP1 DUP4 GT PUSH2 0x150 JUMPI JUMPDEST POP POP POP POP POP SWAP1 POP DUP1 PUSH1 0x0 DUP2 MLOAD DUP2 LT PUSH2 0x17E JUMPI PUSH2 0x17E PUSH2 0x263 JUMP JUMPDEST PUSH1 0x20 MUL PUSH1 0x20 ADD ADD MLOAD SWAP2 POP POP SWAP1 JUMP JUMPDEST PUSH1 0x0 DUP2 DUP2 SLOAD DUP2 LT PUSH2 0x19C JUMPI PUSH1 0x0 DUP1 REVERT JUMPDEST PUSH1 0x0 SWAP2 DUP3 MSTORE PUSH1 0x20 SWAP1 SWAP2 KECCAK256 ADD SLOAD SWAP1 POP DUP2 JUMP JUMPDEST PUSH1 0x0 DUP2 DUP2 PUSH1 0x0 DUP2 SLOAD DUP2 LT PUSH2 0x1C3 JUMPI PUSH2 0x1C3 PUSH2 0x263 JUMP JUMPDEST PUSH1 0x0 SWAP2 DUP3 MSTORE PUSH1 0x20 SWAP1 SWAP2 KECCAK256 ADD SSTORE POP POP JUMP JUMPDEST PUSH1 0x0 DUP1 PUSH1 0x20 DUP4 DUP6 SUB SLT ISZERO PUSH2 0x1E6 JUMPI PUSH1 0x0 DUP1 REVERT JUMPDEST DUP3 CALLDATALOAD PUSH8 0xFFFFFFFFFFFFFFFF DUP2 GT ISZERO PUSH2 0x1FD JUMPI PUSH1 0x0 DUP1 REVERT JUMPDEST DUP4 ADD PUSH1 0x1F DUP2 ADD DUP6 SGT PUSH2 0x20E JUMPI PUSH1 0x0 DUP1 REVERT JUMPDEST DUP1 CALLDATALOAD PUSH8 0xFFFFFFFFFFFFFFFF DUP2 GT ISZERO PUSH2 0x225 JUMPI PUSH1 0x0 DUP1 REVERT JUMPDEST DUP6 PUSH1 0x20 DUP3 PUSH1 0x5 SHL DUP5 ADD ADD GT ISZERO PUSH2 0x23A JUMPI PUSH1 0x0 DUP1 REVERT JUMPDEST PUSH1 0x20 SWAP2 SWAP1 SWAP2 ADD SWAP6 SWAP1 SWAP5 POP SWAP3 POP POP POP JUMP JUMPDEST PUSH1 0x0 PUSH1 0x20 DUP3 DUP5 SUB SLT ISZERO PUSH2 0x25C JUMPI PUSH1 0x0 DUP1 REVERT JUMPDEST POP CALLDATALOAD SWAP2 SWAP1 POP JUMP JUMPDEST PUSH4 0x4E487B71 PUSH1 0xE0 SHL PUSH1 0x0 MSTORE PUSH1 0x32 PUSH1 0x4 MSTORE PUSH1 0x24 PUSH1 0x0 REVERT INVALID LOG2 PUSH5 0x6970667358 0x22 SLT KECCAK256 0x26 0xC0 SWAP15 PUSH23 0xD00D7CF9460CAADB547A76C8DF234E8B1084A52DA3DE37 INVALID STATICCALL MSIZE PUSH17 0xA364736F6C634300081C00330000000000 "
        },
        "methodIdentifiers": {
          "addNumber(uint256)": "fce68023",
          "getFirstNumber()": "62f8e72a",
          "logExternalData(uint256[])": "22ab9139",
          "numbers(uint256)": "d39fa233",
          "updateFirstNumber(uint256)": "dc17bc5c"
        }
      }
    }
  }
}