{
  "contracts/ReentrancyGuard.sol": {
    "ReentrancyGuard": {
      "abi": [
        {
          "inputs": [],
          "name": "withdraw",
          "outputs": [],
          "stateMutability": "nonpayable",
          "type": "function"
        }
      ],
      "evm": {
        "bytecode": {
          "linkReferences": {},
          "object": "60806040526000805460ff19169055348015601957600080fd5b5060c58060276000396000f3fe6080604052348015600f57600080fd5b506004361060285760003560e01c80633ccfd60b14602d575b600080fd5b60336035565b005b60005460ff161560835760405162461bcd60e51b8152602060048201526015602482015274139bc81c99595b9d1c985b98de48185b1b1bddd959605a1b604482015260640160405180910390fd5b6000805460ff1916905556fea2646970667358221220739f0f478c976791bd0d141bc9cd19ea1b13b55082f2f679e5ed9ce4a255ba6d64736f6c634300081c0033",
          "opcodes": "PUSH1 0x80 PUSH1 0x40 MSTORE PUSH1 0x0 DUP1 SLOAD PUSH1 0xFF NOT AND SWAP1 SSTORE CALLVALUE DUP1 ISZERO PUSH1 0x19 JUMPI PUSH1 0x0 DUP1 REVERT JUMPDEST POP PUSH1 0xC5 DUP1 PUSH1 0x27 PUSH1 0x0 CODECOPY PUSH1 0x0 RETURN INVALID PUSH1 0x80 PUSH1 0x40 MSTORE CALLVALUE DUP1 ISZERO PUSH1 0xF JUMPI PUSH1 0x0 DUP1 REVERT JUMPDEST POP PUSH1 0x4 CALLDATASIZE LT PUSH1 0x28 JUMPI PUSH1 0x0 CALLDATALOAD PUSH1 0xE0 SHR DUP1 PUSH4 0x3CCFD60B EQ PUSH1 0x2D JUMPI JUMPDEST PUSH1 0x0 DUP1 REVERT JUMPDEST PUSH1 0x33 PUSH1 0x35 JUMP JUMPDEST STOP JUMPDEST PUSH1 0x0 SLOAD PUSH1 0xFF AND ISZERO PUSH1 0x83 JUMPI PUSH1 0x40 MLOAD PUSH3 0x461BCD PUSH1 0xE5 SHL DUP2 MSTORE PUSH1 0x20 PUSH1 0x4 DUP3 ADD MSTORE PUSH1 0x15 PUSH1 0x24 DUP3 ADD MSTORE PUSH21 0x139BC81C99595B9D1C985B98DE48185B1B1BDDD959 PUSH1 0x5A SHL PUSH1 0x44 DUP3 ADD MSTORE PUSH1 0x64 ADD PUSH1 0x40 MLOAD DUP1 SWAP2 SUB SWAP1 REVERT JUMPDEST PUSH1 0x0 DUP1 SLOAD PUSH1 0xFF NOT AND SWAP1 SSTORE JUMP INVALID LOG2 PUSH5 0x6970667358 0x22 SLT KECCAK256 PUSH20 0x9F0F478C976791BD0D141BC9CD19EA1B13B55082 CALLCODE 0xF6 PUSH26 0xE5ED9CE4A255BA6D64736F6C634300081C003300000000000000 "
        },
        "methodIdentifiers": {
          "withdraw()": "3ccfd60b"
        }
      }
    }
  }
}