{
  "contracts/StateVariableExample.sol": {
    "StateVariableExample": {
      "abi": [
        {
          "inputs": [],
          "name": "storedValue",
          "outputs": [
            {
              "internalType": "uint256",
              "name": "",
              "type": "uint256"
            }
          ],
          "stateMutability": "view",
          "type": "function"
        }
      ],
      "evm": {
        "bytecode": {
          "linkReferences": {},
          "object": "6080604052600a600055348015601457600080fd5b50607d8060226000396000f3fe6080604052348015600f57600080fd5b506004361060285760003560e01c80636d619daa14602d575b600080fd5b603560005481565b60405190815260200160405180910390f3fea2646970667358221220fd4b5bf4fc44850426d3fa62d59c3e733cf9c24101771339320eae6243094d6164736f6c634300081c0033",
          "opcodes": "PUSH1 0x80 PUSH1 0x40 MSTORE PUSH1 0xA PUSH1 0x0 SSTORE CALLVALUE DUP1 ISZERO PUSH1 0x14 JUMPI PUSH1 0x0 DUP1 REVERT JUMPDEST POP PUSH1 0x7D DUP1 PUSH1 0x22 PUSH1 0x0 CODECOPY PUSH1 0x0 RETURN INVALID PUSH1 0x80 PUSH1 0x40 MSTORE CALLVALUE DUP1 ISZERO PUSH1 0xF JUMPI PUSH1 0x0 DUP1 REVERT JUMPDEST POP PUSH1 0x4 CALLDATASIZE LT PUSH1 0x28 JUMPI PUSH1 0x0 CALLDATALOAD PUSH1 0xE0 SHR DUP1 PUSH4 0x6D619DAA EQ PUSH1 0x2D JUMPI JUMPDEST PUSH1 0x0 DUP1 REVERT JUMPDEST PUSH1 0x35 PUSH1 0x0 SLOAD DUP2 JUMP JUMPDEST PUSH1 0x40 MLOAD SWAP1 DUP2 MSTORE PUSH1 0x20 ADD PUSH1 0x40 MLOAD DUP1 SWAP2 SUB SWAP1 RETURN INVALID LOG2 PUSH5 0x6970667358 0x22 SLT KECCAK256 REVERT 0x4B JUMPDEST DELEGATECALL 0xFC PREVRANDAO DUP6 DIV 0x26 0xD3 STATICCALL PUSH3 0xD59C3E PUSH20 0x3CF9C24101771339320EAE6243094D6164736F6C PUSH4 0x4300081C STOP CALLER "
        },
        "methodIdentifiers": {
          "storedValue()": "6d619daa"
        }
      }
    }
  }
}