{
  "_format": "hh-sol-artifact-1",
  "contractName": "TransferExample",
  "sourceName": "contracts/TransferExample.sol",
  "abi": [
    {
      "inputs": [
        {
          "internalType": "address payable",
          "name": "recipient",
          "type": "address"
        }
      ],
      "name": "sendEther",
      "outputs": [],
      "stateMutability": "payable",
      "type": "function"
    }
  ],
  "bytecode": "0x6080604052348015600f57600080fd5b5060ce80601d6000396000f3fe608060405260043610601c5760003560e01c806348c981e2146021575b600080fd5b6030602c366004606a565b6032565b005b6040516001600160a01b038216903480156108fc02916000818181858888f193505050501580156066573d6000803e3d6000fd5b5050565b600060208284031215607b57600080fd5b81356001600160a01b0381168114609157600080fd5b939250505056fea26469706673582212205b9795090bb2d87826578ea5b9affaf8f3d0e5761b6ee405be18c305e4d357e364736f6c634300081c0033",
  "linkReferences": {},
  "deployedLinkReferences": {}
}